:100000000C94AC000C94BA030C94E7030C94D40049
:100010000C94D4000C94D4000C94D4000C94D40010
:100020000C94D4000C94D4000C94D4000C94D40000
:100030000C94D4000C94D4000C94D4000C94D400F0
:100040000C9472020C94D4000C94B9040C94FC042B
:100050000C94D4000C94D4000C94D4000C94D400D0
:100060000C94D4000C94D4001301400119014001F8
:100070003A014001400116011C01400125012B01FC
:100080003101400140014001400140014001400177
:100090004001400140014001400140014001400158
:1000A0004001400140014001400140014001400148
:1000B0004001400140014001400140014001400138
:1000C0004001400140014001400140014001400128
:1000D000400140010401FB00F80019014001010149
:1000E000070134010D014001160110010A01370119
:1000F0003D0140011F01EE0022012E01FE0013010F
:10010000F5002801EB0000000007000201000003D9
:100110000406000000000000000001020408102096
:100120004080010204081020010204081020040489
:10013000040404040404020202020202030303038F
:10014000030300000000250028002B000000000031
:10015000240027002A00B80511241FBECFEFD8E0E5
:10016000DEBFCDBF11E0A0E0B1E0E4E6F0E102C007
:1001700005900D92A631B107D9F711E0A6E1B1E0E3
:1001800001C01D92A53DB107E1F711E0C8E5D1E03E
:1001900004C02297FE010E942C08C635D107C9F77A
:1001A0000E9414040C9430080C9400008F929F92CB
:1001B000AF92BF92CF92DF92EF92FF92E091040153
:1001C000F0910501BC97EF34F10508F059C0EC5CE3
:1001D000FF4F0C942A0886E091E002C085E191E08F
:1001E00090931D0180931C014FC086E291E0F8CFEF
:1001F00087E391E0F5CF8AE491E0F2CF8DE591E0DD
:10020000EFCF82E791E0ECCF88E891E0E9CF8FE98A
:1002100091E0E6CF88EB91E0E3CF82ED91E0E0CF93
:100220008EEE91E0DDCF8BE092E0DACF8AE292E0D1
:10023000D7CF8BE492E0D4CF8EE692E0D1CF83E9A2
:1002400092E0CECF8AEB92E0CBCF84EE92E0C8CFA3
:1002500080E193E0C5CF8FE393E0C2CF80E793E0E6
:10026000BFCF84EA93E0BCCF8CED93E0B9CF87E1B8
:1002700094E0B6CF85E594E0B3CF87E994E0B0CFC2
:1002800010921D0110921C0120911C0130911D0142
:100290008090000190900101A0900201B0900301B4
:1002A000442737FD4095542F80E4C82E82E4D82E91
:1002B0008FE0E82EF12CC701B6010E940B08CA019D
:1002C000B9010E94D206A50194010E9486070E94EE
:1002D0009F0670931B0160931A0120911C013091BD
:1002E0001D018090000190900101A0900201B0904A
:1002F0000301442737FD4095542FC701B6010E94E2
:100300000B08CA01B9010E94D2066B017C01A5014C
:10031000940160E070E080E89FE30E9436069B0154
:10032000AC01C701B6010E9486070E949F06709328
:1003300019016093180180911C0190911D01959500
:100340008795959587959093170180931601FF9057
:10035000EF90DF90CF90BF90AF909F908F900895D7
:1003600061E082E00E942B0361E088E00E942B03A1
:1003700043E050E066ED70E080E00E949A0340E8C0
:1003800055E260E070E08BE291E00C943705CF938A
:10039000DF938BE291E00E944E04909305018093DD
:1003A00004018091040190910501019609F453C064
:1003B00080910401909105018B97F9F460910001FF
:1003C0007091010180910201909103012DEC3CECB0
:1003D0004CE45FE30E949B0687FF0FC06091000121
:1003E00070910101809102019091030120E030E0C1
:1003F00040E05EE30E94370626C0809104019091A0
:1004000005018D9709F069C06091000170910101AB
:1004100080910201909103012DEC3CEC4CE45EE3F1
:100420000E94820718160CF058C06091000170916C
:100430000101809102019091030120E030E040E051
:100440005EE30E9436066093000170930101809381
:1004500002019093030160E082E00E946403C0E027
:10046000D0E08091160190911701C817D90774F553
:100470008BE291E00E944E04909305018093040169
:100480008091040190910501019631F061E082E0D4
:100490000E946403C0E0D0E060E082E00E94640358
:1004A00061E088E00E94640380911A0190911B0131
:1004B0000E94BC0260E088E00E9464038091180101
:1004C000909119010E94BC022196CBCF1092170186
:1004D00010921601DF91CF91089561E082E00E94B1
:1004E0006403B9CF1F920F920FB60F9211242F936E
:1004F0003F938F939F93AF93BF9380911F019091F0
:100500002001A0912101B091220130911E0123E030
:10051000230F2D3720F40196A11DB11D05C026E83B
:10052000230F0296A11DB11D20931E0180931F0170
:1005300090932001A0932101B09322018091230187
:1005400090912401A0912501B09126010196A11D51
:10055000B11D8093230190932401A0932501B093B2
:100560002601BF91AF919F918F913F912F910F9055
:100570000FBE0F901F9018950197009739F0880FC4
:10058000991F880F991F02970197F1F708957894A2
:1005900084B5826084BD84B5816084BD85B5826088
:1005A00085BD85B5816085BDEEE6F0E08081816026
:1005B0008083E1E8F0E01082808182608083808126
:1005C00081608083E0E8F0E0808181608083E1EBFE
:1005D000F0E0808184608083E0EBF0E080818160E6
:1005E0008083EAE7F0E0808184608083808182609C
:1005F0008083808181608083808180688083109285
:10060000C1000895833081F028F4813099F0823060
:10061000A1F008958630A9F08730B9F08430D1F484
:10062000809180008F7D03C0809180008F778093C0
:100630008000089584B58F7702C084B58F7D84BD16
:1006400008958091B0008F7703C08091B0008F7DB6
:100650008093B0000895CF93DF9390E0FC01E65EB5
:10066000FE4F2491FC01E25DFE4F8491882349F105
:1006700090E0880F991FFC01E45BFE4FA591B491B7
:100680008E5B9E4FFC01C591D4919FB7611108C04C
:10069000F8948C91209582238C93888182230AC0C0
:1006A000623051F4F8948C91322F309583238C93DF
:1006B0008881822B888304C0F8948C91822B8C9340
:1006C0009FBFDF91CF9108950F931F93CF93DF9337
:1006D0001F92CDB7DEB7282F30E0F901EA5FFE4F59
:1006E0008491F901E65EFE4F1491F901E25DFE4F3F
:1006F00004910023C9F0882321F069830E9402033A
:100700006981E02FF0E0EE0FFF1FEE5BFE4FA59139
:10071000B4919FB7F8948C91611103C01095812317
:1007200001C0812B8C939FBF0F90DF91CF911F91C0
:100730000F9108958230E8F4E82FF0E0EE0FFF1FEC
:10074000E95DFE4F71836083813041F080916900E3
:100750008C7F842B80936900E89A089580916900CA
:10076000440F551F440F551F837F842B80936900CE
:10077000E99A08951F920F920FB60F9211242F93AA
:100780003F934F935F936F937F938F939F93AF9319
:10079000BF93EF93FF938091270190912801892BBC
:1007A00029F0E0912701F09128010995FF91EF913F
:1007B000BF91AF919F918F917F916F915F914F9179
:1007C0003F912F910F900FBE0F901F9018951F9281
:1007D0000F920FB60F9211242F933F934F935F9375
:1007E0006F937F938F939F93AF93BF93EF93FF93F9
:1007F0008091290190912A01892B29F0E09129010A
:10080000F0912A010995FF91EF91BF91AF919F91CE
:100810008F917F916F915F914F913F912F910F90A9
:100820000FBE0F901F9018950E94C7020E94B00142
:10083000C3EFD4E00E94C7012097E1F30E94F304C4
:10084000F9CFFC0124853585F901E05CFF4F8081FB
:100850009181F901EE5BFF4F20813181821B930B67
:100860008F7399270895FC0184859585FC01E05CD0
:10087000FF4F40815181FC01EE5BFF4F20813181B0
:100880004217530741F00190F081E02DE80FF91F66
:10089000808190E008958FEF9FEF0895FC0184859B
:1008A0009585FC01E05CFF4F40815181FC01EE5BCE
:1008B000FF4F208131814217530779F0A081B18128
:1008C000A80FB91F8C91208131812F5F3F4F2F736B
:1008D00033273183208390E008958FEF9FEF0895B1
:1008E000FC0181A1882329F0A489B5898C9186FF18
:1008F000FBCF11A20895CF93DF93FC0126853785A6
:10090000D901A05CBF4F8D919C91119701968F7377
:100910009927E901CE5BDF4F4881598184179507FC
:10092000D9F30D90BC91A02DA20FB31F6C93A68597
:10093000B785A05CBF4F11969C938E93A689B7890B
:100940002C9181E090E0078C02C0880F991F0A94D7
:10095000E2F7282B2C9381E081A30488F589E02D10
:1009600080818064808381E090E0DF91CF91089561
:1009700008951F920F920FB60F9211242F933F9359
:100980004F938F939F93EF93FF938091C00082FDCD
:100990001CC04091C6008091D1019091D201019676
:1009A0008F7399272091D3013091D4018217930737
:1009B00071F0E091D101F091D201EF56FE4F4083EA
:1009C0009093D2018093D10102C08091C600FF9123
:1009D000EF919F918F914F913F912F910F900FBE6B
:1009E0000F901F9018958BE291E00E942104892BB3
:1009F00011F00C94B80408951F920F920FB60F9245
:100A000011242F933F938F939F93EF93FF93209104
:100A10008D0130918E0180918F0190919001281766
:100A2000390731F48091C1008F7D8093C10014C0DB
:100A3000E0918F01F0919001E35BFE4F2081809166
:100A40008F019091900101968F7399279093900157
:100A500080938F012093C600FF91EF919F918F911A
:100A60003F912F910F900FBE0F901F901895CF922E
:100A7000DF92EF92FF92CF93DF93EC016A017B014B
:100A8000411581EE580761057105F9F0EC89FD8982
:100A900081E090E008A002C0880F991F0A94E2F755
:100AA000808360E079E08DE390E0A70196010E94E9
:100AB000E907215031094109510956954795379564
:100AC0002795211580E1380798F0EC89FD8910827F
:100AD00060E874E88EE190E0A70196010E94E907C2
:100AE0002150310941095109569547953795279568
:100AF000E889F9893083EA89FB89208319A2EE8984
:100B0000FF89408181E090E09C010C8C02C0220FA3
:100B1000331F0A94E2F7422B4083EE89FF8940811C
:100B20009C010D8C02C0220F331F0A94E2F7422B66
:100B30004083EE89FF8940819C010E8C02C0220F08
:100B4000331F0A94E2F7422B4083EE89FF8920810C
:100B50000F8C02C0880F991F0A94E2F780958223B8
:100B60008083DF91CF91FF90EF90DF90CF90089539
:100B700010922E0110922D0188EE93E0A0E0B0E0DB
:100B800080932F0190933001A0933101B0933201F3
:100B90008AE091E090932C0180932B0181E991E010
:100BA00090933801809337018DE491E090933A015E
:100BB0008093390185EC90E090933C0180933B0158
:100BC00084EC90E090933E0180933D0180EC90E0B6
:100BD0009093400180933F0181EC90E0909342011B
:100BE0008093410182EC90E0909344018093430113
:100BF00086EC90E0909346018093450184E08093D9
:100C0000470183E08093480187E08093490185E0B4
:100C100080934A0181E080934B010895CF92DF9247
:100C2000EF92FF920F931F93CF93DF936C017A01A2
:100C3000EB01E60EF71E00E010E0CE15DF0561F0D7
:100C40006991D601ED91FC910190F081E02DC601F2
:100C50000995080F191FF1CFC801DF91CF911F919E
:100C60000F91FF90EF90DF90CF9008955058BB27E1
:100C7000AA270ED00DC1FED030F003D120F031F400
:100C80009F3F11F41EF4F3C00EF4E095E7FBE9C0BA
:100C9000E92F0FD180F3BA1762077307840795070E
:100CA00018F071F49EF527C10EF4E0950B2EBA2FC3
:100CB000A02D0B01B90190010C01CA01A001112462
:100CC000FF27591B99F0593F50F4503E68F11A160E
:100CD000F040A22F232F342F4427585FF3CF46959F
:100CE00037952795A795F0405395C9F77EF41F16C1
:100CF000BA0B620B730B840BBAF09150A1F0FF0F8B
:100D0000BB1F661F771F881FC2F70EC0BA0F621F76
:100D1000731F841F48F4879577956795B795F79566
:100D20009E3F08F0B3CF9395880F08F09927EE0FF8
:100D300097958795089571D008F481E0089504D0BF
:100D40006894B111D9C00895BCD088F09F5790F035
:100D5000B92F9927B751A0F0D1F0660F771F881FE0
:100D6000991F1AF0BA95C9F712C0B13081F0C3D0FB
:100D7000B1E00895C0C0672F782F8827B85F39F099
:100D8000B93FCCF3869577956795B395D9F73EF43F
:100D900090958095709561957F4F8F4F9F4F0895E7
:100DA000E89409C097FB3EF4909580957095619505
:100DB0007F4F8F4F9F4F9923A9F0F92F96E9BB27BB
:100DC0009395F695879577956795B795F111F8CF37
:100DD000FAF4BB0F11F460FF1BC06F5F7F4F8F4FA2
:100DE0009F4F16C0882311F096E911C0772321F098
:100DF0009EE8872F762F05C0662371F096E8862F30
:100E000070E060E02AF09A95660F771F881FDAF786
:100E1000880F9695879597F90895990F0008550FB3
:100E2000AA0BE0E8FEEF16161706E807F907C0F070
:100E300012161306E407F50798F0621B730B840B78
:100E4000950B39F40A2661F0232B242B252B21F452
:100E500008950A2609F4A140A6958FEF811D811DF2
:100E6000089597F99F6780E870E060E008959FEF2C
:100E700080EC089500240A94161617061806090631
:100E8000089500240A941216130614060506089500
:100E9000092E0394000C11F4882352F0BB0F40F488
:100EA000BF2B11F460FF04C06F5F7F4F8F4F9F4FC8
:100EB000089557FD9058440F551F59F05F3F71F04A
:100EC0004795880F97FB991F61F09F3F79F08795B1
:100ED0000895121613061406551FF2CF4695F1DF3A
:100EE00008C0161617061806991FF1CF86957105CA
:100EF000610508940895E894BB2766277727CB01FE
:100F000097F908958ADF08F48FEF08950BD0C0CFCA
:100F1000B1DF28F0B6DF18F0952309F0A2CFA7CFF4
:100F20001124EACFC6DFA0F3959FD1F3950F50E0CF
:100F3000551F629FF001729FBB27F00DB11D639F8B
:100F4000AA27F00DB11DAA1F649F6627B00DA11D31
:100F5000661F829F2227B00DA11D621F739FB00DD7
:100F6000A11D621F839FA00D611D221F749F332747
:100F7000A00D611D231F849F600D211D822F762FE0
:100F80006A2F11249F5750408AF0E1F088234AF0DD
:100F9000EE0FFF1FBB1F661F771F881F9150504029
:100FA000A9F79E3F510570F05CCFA6CF5F3FECF3F1
:100FB000983EDCF3869577956795B795F795E79515
:100FC0009F5FC1F7FE2B880F911D9695879597F926
:100FD0000895A1E21A2EAA1BBB1BFD010DC0AA1F7A
:100FE000BB1FEE1FFF1FA217B307E407F50720F092
:100FF000A21BB30BE40BF50B661F771F881F991F0D
:101000001A9469F760957095809590959B01AC0155
:10101000BD01CF010895052E97FB1EF400940E9498
:10102000220857FD07D00E94E90707FC03D04EF4C1
:101030000C94220850954095309521953F4F4F4F85
:101040005F4F089590958095709561957F4F8F4F74
:101050009F4F0895EE0FFF1F0590F491E02D099426
:04106000F894FFCF32
:101064000000003FFFFF000000007B040E06210487
:061074004E043304700479
:00000001FF
